:020000040800F2
:100000000080012059060008AB060008B906000868
:10001000BF060008C5060008CB0600080000000067
:10002000000000000000000000000000D1060008F1
:10003000DF06000800000000ED060008FB060008CF
:10004000A9060008A9060008A9060008A9060008D4
:10005000A9060008A9060008A9060008A9060008C4
:10006000A9060008A9060008A9060008A9060008B4
:10007000A9060008A9060008A9060008A9060008A4
:10008000A9060008A9060008A9060008A906000894
:10009000A9060008A9060008A9060008A906000884
:1000A000A9060008A9060008A9060008A906000874
:1000B000A9060008A9060008A9060008A906000864
:1000C000A9060008A9060008A9060008A906000854
:1000D000A9060008A9060008A9060008A906000844
:1000E000A9060008A9060008A9060008A906000834
:1000F000A9060008A9060008A9060008A906000824
:10010000A9060008A9060008A9060008A906000813
:10011000A9060008A9060008A9060008A906000803
:10012000A9060008A9060008A9060008A9060008F3
:10013000A9060008A9060008A9060008A9060008E3
:10014000A9060008A9060008A9060008A9060008D3
:10015000A9060008A9060008A9060008A9060008C3
:10016000A9060008A9060008A9060008A9060008B3
:10017000A9060008A9060008A9060008A9060008A3
:08018000A9060008A906000809
:1001880010B5054C237833B9044B13B10448AFF3C9
:1001980000800123237010BD14000020000000001F
:1001A800AC09000808B5034B1BB103490348AFF37A
:1001B800008008BD0000000018000020AC090008FD
:1001C80080B483B000AF03463960FB7197F90730FC
:1001D800002B0BDA0D49FB7903F00F03043B3A6857
:1001E800D2B21201D2B20B441A7609E0084997F943
:1001F80007303A68D2B21201D2B20B4483F8002316
:1002080000BF0C37BD465DF8047B704700ED00E089
:1002180000E100E080B582B000AF78607B68B3F1A0
:10022800807F01D3012311E00A4A7B6823F07F43D2
:10023800013B53600F214FF0FF30FFF7C1FF054B23
:1002480000229A60034B07221A60002318460837D9
:10025800BD4680BD10E000E080B400AF044B1B68D1
:100268000133034A136000BFBD465DF8047B704745
:100278003000002080B485B000AF7860084B1B6860
:10028800FB6000BF064B1A68FB68D21A7B689A426B
:10029800F8D300BF1437BD465DF8047B704700BF34
:1002A8003000002080B500AF00F060FA054B1B68F5
:1002B800054AA2FB03239B091846FFF7ABFF00BFC3
:1002C80080BD00BF00000020D34D621080B485B00F
:1002D80000AFF860B9607A607B68042B00F2948004
:1002E80001A252F823F000BF0503000835030008F7
:1002F80077030008B7030008E5030008FB681B68DC
:10030800BA685200012101FA02F2D2431A40FB688E
:100318001A60FB681B68BA6852000132012101FAB1
:1003280002F2D2431A40FB681A606DE0FB681B6852
:10033800BA685200012101FA02F21A43FB681A60F6
:10034800FB681B68BA6852000132012101FA02F207
:10035800D2431A40FB681A60FB685B680121BA68DF
:1003680001FA02F2D2431A40FB685A604CE0FB687B
:100378001B68BA685200012101FA02F21A43FB68AD
:100388001A60FB681B68BA6852000132012101FA41
:1003980002F2D2431A40FB681A60FB685B680121CD
:1003A800BA6801FA02F21A43FB685A602CE0FB684B
:1003B8001B68BA685200012101FA02F2D2431A40BE
:1003C800FB681A60FB681B68BA6852000132012199
:1003D80001FA02F21A43FB681A6015E0FB681B6811
:1003E800BA685200012101FA02F21A43FB681A6046
:1003F800FB681B68BA6852000132012101FA02F257
:100408001A43FB681A6000BF00BF1437BD465DF889
:10041800047B704780B485B000AFF860B9607A603B
:100428007B68032B66D801A252F823F04504000824
:1004380075040008A3040008D1040008FB689B6841
:10044800BA685200012101FA02F2D2431A40FB684D
:100458009A60FB689B68BA6852000132012101FA70
:1004680002F2D2431A40FB689A6043E0FB689B683B
:10047800BA685200012101FA02F2D2431A40FB681D
:100488009A60FB689B68BA6852000132012101FA40
:1004980002F21A43FB689A602CE0FB689B68BA6812
:1004A8005200012101FA02F21A43FB689A60FB68C4
:1004B8009B68BA6852000132012101FA02F2D24364
:1004C8001A40FB689A6015E0FB689B68BA6852009E
:1004D800012101FA02F21A43FB689A60FB689B68E3
:1004E800BA6852000132012101FA02F21A43FB688C
:1004F8009A6000BF00BF1437BD465DF8047B7047A3
:1005080080B582B000AF786039607B681B8B9BB286
:100518001AB201213B6801FA03F31BB213431BB261
:100528009AB27B681A834FF47A70FFF7A3FE7B6850
:100538005B8B9BB21AB201213B6801FA03F31BB231
:1005480013431BB29AB27B685A834FF47A70FFF751
:1005580091FE00BF0837BD4680BD000084B080B55D
:1005680000AF07F1080E8EE80F00BB68214A9342DE
:1005780005D1214A204B1B6B43F001031363BB6871
:100588001E4A934205D11C4A1B4B1B6B43F00203C6
:100598001363BB681A4A934205D1174A164B1B6B63
:1005A80043F004031363BB68164A934205D1124A09
:1005B800114B1B6B43F008031363BB68124A934249
:1005C80005D10D4A0C4B1B6B43F010031363BB683A
:1005D800F9683A691846FFF779FEBB68F968BA699D
:1005E8001846FFF717FF00BFBD46BDE8804004B0BE
:1005F800704700BF0000024000380240000402407B
:1006080000080240000C02400010024080B588B08B
:1006180002AFFFF747FE0D4B3B6005237B600123CC
:10062800BB6003233B616A4607F1100393E80300AC
:1006380082E803003B460FCBFFF790FF3B687A68E0
:1006480011461846FFF75CFFF8E700BF00000240BC
:10065800DFF834D0002103E00C4B5B5843500431E1
:100668000B480C4B42189A42F6D30B4A02E000237F
:1006780042F8043B094B9A42F9D300F041F800F0E4
:100688006DF9FFF7C3FF704700800120CC0900080F
:100698000000002014000020140000203400002076
:1006A800FEE780B400AF00BFBD465DF8047B70472D
:1006B80080B400AFFEE780B400AFFEE780B400AFBF
:1006C800FEE780B400AFFEE780B400AF00BFBD46D0
:1006D8005DF8047B704780B400AF00BFBD465DF88D
:1006E800047B704780B400AF00BFBD465DF8047B53
:1006F800704780B500AFFFF7AFFD00BF80BD0000B9
:1007080080B500AF164A164BD3F8883043F470030F
:10071800C2F88830134A134B1B6843F00103136077
:10072800104B00229A600F4A0E4B1B6823F084730B
:1007380023F4803313600B4B0B4A5A60094A094B68
:100748001B6823F480231360064B0022DA6000F054
:1007580089F8034B4FF000629A6000BF80BD00BF6C
:1007680000ED00E0003802401030002480B487B06B
:1007780000AF00233B6100237B610223FB60002361
:10078800BB6002237B60324B9B6803F00C033B6128
:100798003B69042B07D0082B09D0002B3DD12D4BEA
:1007A8002D4A1A603DE02B4B2C4A1A6039E0284B41
:1007B8005B689B0D03F00103BB60254B5B6803F08E
:1007C8003F037B60BB68002B0CD0244A7B68B2FBDC
:1007D800F3F31F4A52689209C2F3080202FB03F3BB
:1007E8007B610BE01C4A7B68B2FBF3F3184A526842
:1007F8009209C2F3080202FB03F37B61144B5B68A6
:100808001B0C03F0030301335B00FB607A69FB6890
:10081800B2FBF3F30F4A136003E00E4B0E4A1A6063
:1008280000BF0B4B9B681B0903F00F030C4AD35CFA
:10083800DBB23B61074B1A683B6922FA03F3054AAE
:10084800136000BF1C37BD465DF8047B704700BFCE
:1008580000380240000000200024F40040787D01A8
:100868000400002080B483B000AF00237B60002325
:100878003B60364A354B1B6843F480331360334B77
:100888001B6803F400333B607B6801337B603B6883
:10089800002B03D17B68B3F5A06FF0D12B4B1B68FD
:1008A80003F40033002B02D001233B6001E0002356
:1008B8003B603B68012B42D1244A244B1B6C43F01C
:1008C80080531364224A224B1B6843F4404313604D
:1008D8001E4A1E4B9B6893601C4A1C4B9B6843F442
:1008E80000439360194A194B9B6843F4A0539360E3
:1008F800164B184A5A60154A144B1B6843F080730C
:10090800136000BF114B1B6803F00073002BF9D074
:10091800114B40F205721A600C4A0C4B9B6823F08D
:1009280003039360094A094B9B6843F002039360F1
:1009380000BF064B9B6803F00C03082BF9D100BFDE
:100948000C37BD465DF8047B704700BF0038024095
:100958000070004019544007003C024070B50D4E2D
:100968000D4CA41BA4100025A54209D10B4E0C4C1C
:1009780000F018F8A41BA4100025A54205D170BDED
:1009880056F8253098470135EEE756F82530984750
:100998000135F2E7C4090008C4090008C4090008C1
:1009A800C8090008F8B500BFF8BC08BC9E467047E7
:0C09B800F8B500BFF8BC08BC9E467047B4
:0409C400AD01000879
:0409C8008901000899
:1009CC00007A030A0000000000000000010203048A
:0409DC0006070809F9
:040000050800065990
:00000001FF
