:020000040800F2
:1000000000800120490300089B030008A9030008A1
:10001000AF030008B5030008BB03000800000000A0
:10002000000000000000000000000000C103000804
:10003000CF03000800000000DD030008EB03000808
:100040009903000899030008990300089903000820
:100050009903000899030008990300089903000810
:100060009903000899030008990300089903000800
:1000700099030008990300089903000899030008F0
:1000800099030008990300089903000899030008E0
:1000900099030008990300089903000899030008D0
:1000A00099030008990300089903000899030008C0
:1000B00099030008990300089903000899030008B0
:1000C00099030008990300089903000899030008A0
:1000D0009903000899030008990300089903000890
:1000E0009903000899030008990300089903000880
:1000F0009903000899030008990300089903000870
:10010000990300089903000899030008990300085F
:10011000990300089903000899030008990300084F
:10012000990300089903000899030008990300083F
:10013000990300089903000899030008990300082F
:10014000990300089903000899030008990300081F
:10015000990300089903000899030008990300080F
:1001600099030008990300089903000899030008FF
:1001700099030008990300089903000899030008EF
:0801800099030008990300082F
:1001880010B5054C237833B9044B13B10448AFF3C9
:1001980000800123237010BD14000020000000001F
:1001A8009C06000808B5034B1BB103490348AFF38D
:1001B800008008BD00000000180000209C06000810
:1001C80080B483B000AF03463960FB7197F90730FC
:1001D800002B0BDA0D49FB7903F00F03043B3A6857
:1001E800D2B21201D2B20B441A7609E0084997F943
:1001F80007303A68D2B21201D2B20B4483F8002316
:1002080000BF0C37BD465DF8047B704700ED00E089
:1002180000E100E080B582B000AF78607B68B3F1A0
:10022800807F01D3012311E00A4A7B6823F07F43D2
:10023800013B53600F214FF0FF30FFF7C1FF054B23
:1002480000229A60034B07221A60002318460837D9
:10025800BD4680BD10E000E080B400AF044B1B68D1
:100268000133034A136000BFBD465DF8047B704745
:100278003000002080B485B000AF7860084B1B6860
:10028800FB6000BF064B1A68FB68D21A7B689A426B
:10029800F8D300BF1437BD465DF8047B704700BF34
:1002A8003000002080B500AF00F0D8F8054B1B687F
:1002B800054AA2FB03239B091846FFF7ABFF00BFC3
:1002C80080BD00BF00000020D34D621080B500AF94
:1002D800FFF7E8FF184A184B1B6B43F00103136341
:1002E800164A164B1B6843F480631360134A134B7A
:1002F8005B6843F020035360104A104B9B6843F43B
:10030800406393600D4A0D4B1B8B9BB243F0200357
:100318009BB213834FF47A70FFF7ACFF074A074B81
:100328005B8B9BB243F020039BB253834FF47A70EC
:10033800FFF7A0FFE6E700BF0038024000000240D8
:10034800DFF834D0002103E00C4B5B5843500431F4
:100358000B480C4B42189A42F6D30B4A02E0002392
:1003680042F8043B094B9A42F9D300F041F800F0F7
:100378006DF9FFF7ABFF704700800120BC0600084D
:100388000000002014000020140000203400002089
:10039800FEE780B400AF00BFBD465DF8047B704740
:1003A80080B400AFFEE780B400AFFEE780B400AFD2
:1003B800FEE780B400AFFEE780B400AF00BFBD46E3
:1003C8005DF8047B704780B400AF00BFBD465DF8A0
:1003D800047B704780B400AF00BFBD465DF8047B66
:1003E800704780B500AFFFF737FF00BF80BD000042
:1003F80080B500AF164A164BD3F8883043F4700323
:10040800C2F88830134A134B1B6843F0010313608A
:10041800104B00229A600F4A0E4B1B6823F084731E
:1004280023F4803313600B4B0B4A5A60094A094B7B
:100438001B6823F480231360064B0022DA6000F067
:1004480089F8034B4FF000629A6000BF80BD00BF7F
:1004580000ED00E0003802401030002480B487B07E
:1004680000AF00233B6100237B610223FB60002374
:10047800BB6002237B60324B9B6803F00C033B613B
:100488003B69042B07D0082B09D0002B3DD12D4BFD
:100498002D4A1A603DE02B4B2C4A1A6039E0284B54
:1004A8005B689B0D03F00103BB60254B5B6803F0A1
:1004B8003F037B60BB68002B0CD0244A7B68B2FBEF
:1004C800F3F31F4A52689209C2F3080202FB03F3CE
:1004D8007B610BE01C4A7B68B2FBF3F3184A526855
:1004E8009209C2F3080202FB03F37B61144B5B68B9
:1004F8001B0C03F0030301335B00FB607A69FB68A4
:10050800B2FBF3F30F4A136003E00E4B0E4A1A6076
:1005180000BF0B4B9B681B0903F00F030C4AD35C0D
:10052800DBB23B61074B1A683B6922FA03F3054AC1
:10053800136000BF1C37BD465DF8047B704700BFE1
:1005480000380240000000200024F40040787D01BB
:100558000400002080B483B000AF00237B60002338
:100568003B60364A354B1B6843F480331360334B8A
:100578001B6803F400333B607B6801337B603B6896
:10058800002B03D17B68B3F5A06FF0D12B4B1B6810
:1005980003F40033002B02D001233B6001E0002369
:1005A8003B603B68012B42D1244A244B1B6C43F02F
:1005B80080531364224A224B1B6843F44043136060
:1005C8001E4A1E4B9B6893601C4A1C4B9B6843F455
:1005D80000439360194A194B9B6843F4A0539360F6
:1005E800164B184A5A60154A144B1B6843F080731F
:1005F800136000BF114B1B6803F00073002BF9D088
:10060800114B40F205721A600C4A0C4B9B6823F0A0
:1006180003039360094A094B9B6843F00203936004
:1006280000BF064B9B6803F00C03082BF9D100BFF1
:100638000C37BD465DF8047B704700BF00380240A8
:100648000070004019544007003C024070B50D4E40
:100658000D4CA41BA4100025A54209D10B4E0C4C2F
:1006680000F018F8A41BA4100025A54205D170BD00
:1006780056F8253098470135EEE756F82530984763
:100688000135F2E7B4060008B4060008B40600080D
:10069800B8060008F8B500BFF8BC08BC9E4670470D
:0C06A800F8B500BFF8BC08BC9E467047C7
:0406B400AD0100088C
:0406B80089010008AC
:1006BC00007A030A0000000000000000010203049D
:0406CC00060708090C
:0400000508000349A3
:00000001FF
