:020000040800F2
:10000000008001200D0900085F0900086D09000843
:1000100073090008790900087F0900080000000042
:10002000000000000000000000000000850900083A
:100030009309000800000000A1090008AF090008AA
:100040005D0900085D0900085D0900085D090008F8
:100050005D0900085D0900085D0900085D090008E8
:10006000BD090008D50900085D0900085D09000800
:100070005D0900085D0900085D0900085D090008C8
:100080005D0900085D0900085D0900085D090008B8
:100090005D0900085D0900085D0900085D090008A8
:1000A0005D0900085D0900085D0900085D09000898
:1000B0005D0900085D0900085D0900085D09000888
:1000C0005D0900085D0900085D0900085D09000878
:1000D0005D0900085D0900085D0900085D09000868
:1000E0005D0900085D0900085D0900085D09000858
:1000F0005D0900085D0900085D0900085D09000848
:100100005D0900085D0900085D0900085D09000837
:100110005D0900085D0900085D0900085D09000827
:10012000ED0900085D0900085D0900085D09000887
:100130005D0900085D0900085D0900085D09000807
:100140005D0900085D0900085D0900085D090008F7
:100150005D0900085D0900085D0900085D090008E7
:100160005D0900085D0900085D0900085D090008D7
:100170005D0900085D0900085D0900085D090008C7
:080180005D0900085D0900089B
:1001880010B5054C237833B9044B13B10448AFF3C9
:1001980000800123237010BD14000020000000001F
:1001A800B00C000808B5034B1BB103490348AFF373
:1001B800008008BD0000000018000020B00C0008F6
:1001C80080B483B000AF0346FB71094997F9073043
:1001D8005B09FA7902F01F02012000FA02F241F8E5
:1001E800232000BF0C37BD465DF8047B704700BF75
:1001F80000E100E080B483B000AF03463960FB71D2
:1002080097F90730002B0BDA0D49FB7903F00F0340
:10021800043B3A68D2B21201D2B20B441A7609E012
:10022800084997F907303A68D2B21201D2B20B44A2
:1002380083F8002300BF0C37BD465DF8047B704788
:1002480000ED00E000E100E080B590B002AF00F002
:100258005DF92F4BFB6106233B6201237B6203237D
:10026800FB626A4607F12C0393E8030082E8030067
:1002780007F11C030FCB00F0EDFA254B7B6005233B
:10028800BB600123FB6003237B616A4607F114030B
:1002980093E8030082E803003B1D0FCB00F0DAFA75
:1002A80003210820FFF7A6FF04210920FFF7A2FF7A
:1002B8000820FFF785FF0920FFF782FF0221382079
:1002C800FFF798FF3820FFF77BFF00220621104830
:1002D80000F080FA00F022F84FF4FA720D490E4847
:1002E80000F076F800237B630BE07B6B7A6B02FBF4
:1002F80003F31946084A7B6B42F823107B6B0133E2
:100308007B637B6BB3F5FA7FEFD300F079F8FEE7F8
:1003180000000240000800203000002080B400AF38
:10032800294A294B1B6B43F480031363274B1B6833
:1003380003F00103012B0CD1244A244B1B6823F042
:100348000103136000BF214B1B6803F00103012B5D
:10035800F9D01E4A1D4B1B6843F4403313601B4AF7
:100368001A4B1B6843F080031360184A174B1B682D
:1003780043F480431360154A144B1B6843F48053BD
:100388001360124A114B5B6943F0040353610F4A2F
:100398000E4B5B6943F0010353610C4A0B4B1B681E
:1003A80043F400731360094A084B1B6843F48063E5
:1003B8001360064A054B1B6843F01003136000BF27
:1003C800BD465DF8047B7047003802401064024067
:1003D80080B485B000AFF860B9607A60074AFB68FE
:1003E8009360064ABB68D360044A7B68536000BFC9
:1003F8001437BD465DF8047B704700BF10640240A7
:1004080080B400AF064B3D229A60064A054B1B6834
:1004180043F00103136000BFBD465DF8047B7047DD
:10042800006402401064024080B483B000AF034609
:100438003960FB7197F90730002B0BDA0D49FB790E
:1004480003F00F03043B3A68D2B21201D2B20B4454
:100458001A7609E0084997F907303A68D2B21201CA
:10046800D2B20B4483F8002300BF0C37BD465DF8B9
:10047800047B704700ED00E000E100E080B582B049
:1004880000AF78607B68B3F1807F01D3012311E06E
:100498000A4A7B6823F07F43013B53600F214FF0EA
:1004A800FF30FFF7C1FF054B00229A60034B07227C
:1004B8001A60002318460837BD4680BD10E000E0EA
:1004C80080B400AF044B1B680133034A136000BFBC
:1004D800BD465DF8047B7047D00F002080B485B01E
:1004E80000AF7860084B1B68FB6000BF064B1A68BA
:1004F800FB68D21A7B689A42F8D300BF1437BD460E
:100508005DF8047B704700BFD00F002080B500AFB6
:1005180000F0AEFA054B1B68054AA2FB03239B09B2
:100528001846FFF7ABFF00BF80BD00BF00000020EA
:10053800D34D621080B485B000AFF860B9607A60BE
:100548003B607B68042B00F2C88001A252F823F0BC
:100558006D0500080506000847060008870600081C
:10056800B5060008FB681B68BA685200012101FA49
:1005780002F2D2431A40FB681A60FB681B68BA682B
:1005880052000132012101FA02F2D2431A40FB68FB
:100598001A603B68012B16D1FB68DB68BA68520009
:1005A800012101FA02F21A43FB68DA60FB68DB6892
:1005B800BA6852000132012101FA02F2D2431A400C
:1005C800FB68DA6088E03B68022B40F08580FB68B6
:1005D800DB68BA685200012101FA02F2D2431A40DC
:1005E800FB68DA60FB68DB68BA68520001320121F7
:1005F80001FA02F21A43FB68DA606DE0FB681B68D7
:10060800BA685200012101FA02F21A43FB681A6023
:10061800FB681B68BA6852000132012101FA02F234
:10062800D2431A40FB681A60FB685B680121BA680C
:1006380001FA02F2D2431A40FB685A604DE0FB68A7
:100648001B68BA685200012101FA02F21A43FB68DA
:100658001A60FB681B68BA6852000132012101FA6E
:1006680002F2D2431A40FB681A60FB685B680121FA
:10067800BA6801FA02F21A43FB685A602DE0FB6877
:100688001B68BA685200012101FA02F2D2431A40EB
:10069800FB681A60FB681B68BA68520001320121C6
:1006A80001FA02F21A43FB681A6016E0FB681B683D
:1006B800BA685200012101FA02F21A43FB681A6073
:1006C800FB681B68BA6852000132012101FA02F284
:1006D8001A43FB681A6000E000BF00BF1437BD462C
:1006E8005DF8047B704700BF80B485B000AFF86048
:1006F800B9607A607B68032B66D801A252F823F0B0
:10070800190700084907000877070008A507000827
:10071800FB689B68BA685200012101FA02F2D243D1
:100728001A40FB689A60FB689B68BA6852000132FD
:10073800012101FA02F2D2431A40FB689A6043E0B1
:10074800FB689B68BA685200012101FA02F2D243A1
:100758001A40FB689A60FB689B68BA6852000132CD
:10076800012101FA02F21A43FB689A602CE0FB6847
:100778009B68BA685200012101FA02F21A43FB6829
:100788009A60FB689B68BA6852000132012101FA3D
:1007980002F2D2431A40FB689A6015E0FB689B6836
:1007A800BA685200012101FA02F21A43FB689A6002
:1007B800FB689B68BA6852000132012101FA02F213
:1007C8001A43FB689A6000BF00BF1437BD465DF846
:1007D800047B704780B485B000AFF860B9601346F9
:1007E800FB71FB79012B0ED1FB681B8B9BB21AB2F4
:1007F8000121BB6801FA03F31BB213431BB29AB27F
:10080800FB681A8320E0FB79002B1DD1FB681B8B4A
:100818009BB21AB20121BB6801FA03F31BB2DB4396
:100828001BB213401BB29AB2FB681A83FB685B8B3E
:100838009BB21AB20121BB6801FA03F31BB213433E
:100848001BB29AB2FB685A8300BF1437BD465DF8E5
:10085800047B704784B080B500AF07F1080E8EE8BE
:100868000F00BB68214A934205D1214A204B1B6BDC
:1008780043F001031363BB681E4A934205D11C4A27
:100888001B4B1B6B43F002031363BB681A4A93426A
:1008980005D1174A164B1B6B43F004031363BB685F
:1008A800164A934205D1124A114B1B6B43F00803B9
:1008B8001363BB68124A934205D10D4A0C4B1B6B5C
:1008C80043F010031363B868F9683A697B69FFF766
:1008D80031FEBB68F968BA691846FFF705FF00BF23
:1008E800BD46BDE8804004B0704700BF000002402C
:1008F800003802400004024000080240000C024098
:1009080000100240DFF834D0002103E00C4B5B58A4
:10091800435004310B480C4B42189A42F6D30B4A09
:1009280002E0002342F8043B094B9A42F9D300F055
:1009380069F800F095F9FFF787FC704700800120FF
:10094800D00C000800000020140000201400002033
:10095800D40F0020FEE780B400AF00BFBD465DF8AD
:10096800047B704780B400AFFEE780B400AFFEE7B9
:1009780080B400AFFEE780B400AFFEE780B400AFFC
:1009880000BFBD465DF8047B704780B400AF00BF70
:10099800BD465DF8047B704780B400AF00BFBD461C
:1009A8005DF8047B704780B500AFFFF789FD00BF95
:1009B80080BD000080B500AF012206210248FFF784
:1009C80009FF00BF80BD00BF0000024080B500AF36
:1009D800002206210248FFF7FDFE00BF80BD00BFD0
:1009E8000000024080B500AF012206210448FFF74D
:1009F800F1FE40F6B830FFF771FD00BF80BD00BFC3
:100A08000000024080B500AF164A164BD3F8883074
:100A180043F47003C2F88830134A134B1B6843F041
:100A280001031360104B00229A600F4A0E4B1B689B
:100A380023F0847323F4803313600B4B0B4A5A6002
:100A4800094A094B1B6823F480231360064B0022D4
:100A5800DA6000F089F8034B4FF000629A6000BF3B
:100A680080BD00BF00ED00E00038024010300024D7
:100A780080B487B000AF00233B6100237B61022371
:100A8800FB600023BB6002237B60324B9B6803F052
:100A98000C033B613B69042B07D0082B09D0002BC2
:100AA8003DD12D4B2D4A1A603DE02B4B2C4A1A6044
:100AB80039E0284B5B689B0D03F00103BB60254BB5
:100AC8005B6803F03F037B60BB68002B0CD0244AB3
:100AD8007B68B2FBF3F31F4A52689209C2F308021B
:100AE80002FB03F37B610BE01C4A7B68B2FBF3F368
:100AF800184A52689209C2F3080202FB03F37B61A9
:100B0800144B5B681B0C03F0030301335B00FB60B1
:100B18007A69FB68B2FBF3F30F4A136003E00E4BEC
:100B28000E4A1A6000BF0B4B9B681B0903F00F03AA
:100B38000C4AD35CDBB23B61074B1A683B6922FA6B
:100B480003F3054A136000BF1C37BD465DF8047BFC
:100B5800704700BF00380240000000200024F40065
:100B680040787D010400002080B483B000AF0023EA
:100B78007B6000233B60364A354B1B6843F4803367
:100B88001360334B1B6803F400333B607B6801330D
:100B98007B603B68002B03D17B68B3F5A06FF0D175
:100BA8002B4B1B6803F40033002B02D001233B605E
:100BB80001E000233B603B68012B42D1244A244BCF
:100BC8001B6C43F080531364224A224B1B6843F486
:100BD800404313601E4A1E4B9B6893601C4A1C4B83
:100BE8009B6843F400439360194A194B9B6843F48C
:100BF800A0539360164B184A5A60154A144B1B6849
:100C080043F08073136000BF114B1B6803F000733F
:100C1800002BF9D0114B40F205721A600C4A0C4BAC
:100C28009B6823F003039360094A094B9B6843F0D0
:100C38000203936000BF064B9B6803F00C03082B6C
:100C4800F9D100BF0C37BD465DF8047B704700BF83
:100C5800003802400070004019544007003C024030
:100C680070B50D4E0D4CA41BA4100025A54209D14A
:100C78000B4E0C4C00F018F8A41BA4100025A5423C
:100C880005D170BD56F8253098470135EEE756F87E
:100C9800253098470135F2E7C80C0008C80C000851
:100CA800C80C0008CC0C0008F8B500BFF8BC08BC9C
:100CB8009E467047F8B500BFF8BC08BC9E46704712
:040CC800AD01000872
:040CCC008901000892
:100CD000007A030A00000000000000000102030483
:040CE00006070809F2
:040000050800090DD9
:00000001FF
