:020000040800F2
:1000000000800120A50A0008F70A0008050B000877
:100010000B0B0008110B0008170B00080000000074
:100020000000000000000000000000001D0B0008A0
:100030002B0B000800000000390B0008470B0008DC
:10004000F50A0008F50A0008F50A0008F50A000894
:10005000F50A0008F50A0008F50A0008F50A000884
:10006000550B00086D0B0008F50A0008F50A00089A
:10007000F50A0008F50A0008F50A0008F50A000864
:10008000F50A0008F50A0008F50A0008F50A000854
:10009000F50A0008F50A0008F50A0008F50A000844
:1000A000F50A0008F50A0008F50A0008F50A000834
:1000B000F50A0008F50A0008F50A0008F50A000824
:1000C000F50A0008F50A0008F50A0008F50A000814
:1000D000F50A0008C1090008F50A0008F50A000839
:1000E000F50A0008F50A0008F50A0008F50A0008F4
:1000F000F50A0008F50A0008F50A0008F50A0008E4
:10010000F50A0008F50A0008F50A0008F50A0008D3
:10011000F50A0008F50A0008F50A0008F50A0008C3
:10012000850B0008F50A0008F50A0008F50A000822
:10013000F50A0008F50A0008F50A0008F50A0008A3
:10014000F50A0008F50A0008F50A0008F50A000893
:10015000F50A0008F50A0008F50A0008F50A000883
:10016000F50A0008F50A0008F50A0008F50A000873
:10017000F50A0008F50A0008F50A0008F50A000863
:08018000F50A0008F50A000869
:1001880010B5054C237833B9044B13B10448AFF3C9
:1001980000800123237010BD14000020000000001F
:1001A800400E000808B5034B1BB103490348AFF3E1
:1001B800008008BD0000000018000020400E000864
:1001C800B0B5A0B000AF164B07F168041D460FCDBF
:1001D8000FC495E8030084E8030000F081F800F0FC
:1001E80095FA00F0FDFA00F041FB07F168031846A4
:1001F80000F088FB0B4800F085FB3B1D6421184686
:1002080000F094FB0346002BF7D0074800F07AFB78
:100218003B1D184600F076FB024800F073FBECE744
:10022800680E0008580E00085C0E000880B483B001
:1002380000AF03463960FB7197F90730002B0BDAE2
:100248000D49FB7903F00F03043B3A68D2B212015F
:10025800D2B20B441A7609E0084997F907303A6890
:10026800D2B21201D2B20B4483F8002300BF0C377C
:10027800BD465DF8047B704700ED00E000E100E05A
:1002880080B582B000AF78607B68B3F1807F01D31E
:10029800012311E00A4A7B6823F07F43013B536046
:1002A8000F214FF0FF30FFF7C1FF054B00229A6086
:1002B800034B07221A60002318460837BD4680BD45
:1002C80010E000E080B400AF044B1B680133034A20
:1002D800136000BFBD465DF8047B70473000002006
:1002E80080B500AF00F08CFC054B1B68054AA2FBEB
:1002F80003239B091846FFF7C3FF00BF80BD00BF5B
:1003080000000020D34D621080B485B000AFF860C3
:10031800B9607A603B607B68042B00F2C88001A258
:1003280052F823F041030008D90300081B04000811
:100338005B04000889040008FB681B68BA6852005F
:10034800012101FA02F2D2431A40FB681A60FB68E5
:100358001B68BA6852000132012101FA02F2D24345
:100368001A40FB681A603B68012B16D1FB68DB68F2
:10037800BA685200012101FA02F21A43FB68DA60F6
:10038800FB68DB68BA6852000132012101FA02F207
:10039800D2431A40FB68DA6088E03B68022B40F0E1
:1003A8008580FB68DB68BA685200012101FA02F215
:1003B800D2431A40FB68DA60FB68DB68BA6852000F
:1003C8000132012101FA02F21A43FB68DA606DE09A
:1003D800FB681B68BA685200012101FA02F21A434D
:1003E800FB681A60FB681B68BA6852000132012179
:1003F80001FA02F2D2431A40FB681A60FB685B6894
:100408000121BA6801FA02F2D2431A40FB685A6025
:100418004DE0FB681B68BA685200012101FA02F23C
:100428001A43FB681A60FB681B68BA6852000132FD
:10043800012101FA02F2D2431A40FB681A60FB68F4
:100448005B680121BA6801FA02F21A43FB685A6034
:100458002DE0FB681B68BA685200012101FA02F21C
:10046800D2431A40FB681A60FB681B68BA685200DE
:100478000132012101FA02F21A43FB681A6016E000
:10048800FB681B68BA685200012101FA02F21A439C
:10049800FB681A60FB681B68BA68520001320121C8
:1004A80001FA02F21A43FB681A6000E000BF00BFBD
:1004B8001437BD465DF8047B704700BF80B485B033
:1004C80000AFF860B9607A607B68032B66D801A238
:1004D80052F823F0ED0400081D0500084B0500083C
:1004E80079050008FB689B68BA685200012101FA87
:1004F80002F2D2431A40FB689A60FB689B68BA68AC
:1005080052000132012101FA02F2D2431A40FB687B
:100518009A6043E0FB689B68BA685200012101FABF
:1005280002F2D2431A40FB689A60FB689B68BA687B
:1005380052000132012101FA02F21A43FB689A6063
:100548002CE0FB689B68BA685200012101FA02F2AC
:100558001A43FB689A60FB689B68BA6852000132CC
:10056800012101FA02F2D2431A40FB689A6015E0B1
:10057800FB689B68BA685200012101FA02F21A432B
:10058800FB689A60FB689B68BA68520001320121D7
:1005980001FA02F21A43FB689A6000BF00BF1437E1
:1005A800BD465DF8047B704780B485B000AFF86045
:1005B800B9601346FB71FB79012B0ED1FB681B8BCD
:1005C8009BB21AB20121BB6801FA03F31BB21343B1
:1005D8001BB29AB2FB681A8320E0FB79002B1DD16D
:1005E800FB681B8B9BB21AB20121BB6801FA03F3AB
:1005F8001BB2DB431BB213401BB29AB2FB681A83CF
:10060800FB685B8B9BB21AB20121BB6801FA03F34A
:100618001BB213431BB29AB2FB685A8300BF14374C
:10062800BD465DF8047B704784B080B500AF07F124
:10063800080E8EE80F00BB68214A934205D1214A73
:10064800204B1B6B43F001031363BB681E4A9342A4
:1006580005D11C4A1B4B1B6B43F002031363BB6899
:100668001A4A934205D1174A164B1B6B43F00403F1
:100678001363BB68164A934205D1124A114B1B6B90
:1006880043F008031363BB68124A934205D10D4A2D
:100698000C4B1B6B43F010031363B868F9683A6995
:1006A8007B69FFF731FEBB68F968BA691846FFF73E
:1006B80005FF00BFBD46BDE8804004B0704700BFDD
:1006C80000000240003802400004024000080240D6
:1006D800000C02400010024080B483B000AF034613
:1006E800FB71094997F907305B09FA7902F01F0293
:1006F800012000FA02F241F8232000BF0C37BD4662
:100708005DF8047B704700BF00E100E080B58EB063
:1007180002AF324BBB610923FB6103233B62012318
:10072800BB622E4B3B600A237B600323BB606A4697
:1007380007F1280393E8030082E8030007F1180390
:100748000FCBFFF771FFB869F9693A6A6323FFF7BE
:10075800DBFD38687968BA686323FFF7D5FDBB69A4
:10076800BA69526822F400725A60012209211B48B2
:10077800FFF7A4FEBB69BA69D26822F44022DA60A6
:100788003B683A68D26822F44012DA60BB69BA69F9
:10079800D26862F48022DA603B683A68D26862F410
:1007A8008012DA60BB69BA69526A22F0F0025A62B2
:1007B8003B683A68526A22F470625A62BB69BA6945
:1007C800526A42F070025A623B683A68526A42F4CE
:1007D800E0625A6200BF3037BD4680BD000002406B
:1007E80080B400AF1F4A1F4B5B6C43F01003536487
:1007F8001D4A1D4B9B899BB2C3F30E039BB2938189
:10080800194A194B9B8A9BB243F400639BB29382AB
:10081800154A154B9B899BB243F480539BB2938135
:10082800114A114B1B8A9BB223F440539BB213828B
:100838000D4A0D4B9B899BB243F480639BB2938115
:10084800094A094B9B899BB243F400739BB293817D
:10085800054B40F283621A8100BFBD465DF8047BF8
:10086800704700BF003802400010014080B500AF5B
:10087800164A164B9B899BB243F400539BB2938153
:10088800124A124B9B899BB243F008039BB2938197
:100898000E4A0E4B9B899BB243F004039BB2938193
:1008A8000A4A0A4B9B899BB243F480739BB293819B
:1008B8002520FFF711FF054A044B9B899BB243F0A3
:1008C80020039BB2938100BF80BD00BF0010014090
:1008D80080B483B000AF0346FB7100BF084B1B8890
:1008E8009BB203F08003002BF8D0054BFA7992B243
:1008F8009A8000BF0C37BD465DF8047B704700BF87
:100908000010014080B582B000AF786006E07B68D7
:100918005A1C7A601B781846FFF7DAFF7B681B7849
:10092800002BF4D100BF0837BD4680BD80B485B028
:1009380000AF78600B46FB701C4B1B78DBB2002BBA
:100948002CD01B4B1B78DBB2FA789A4203D8FB7881
:10095800013BDBB202E0164B1B78DBB2BB73002312
:10096800FB730AE0FB7B7A681344FA7B11498A5CC3
:10097800D2B21A70FB7B0133FB73FA7BBB7B9A42C2
:10098800F0D3BB7B7A68134400221A70084B00220C
:100998001A70064B00221A70012300E00023184643
:1009A8001437BD465DF8047B704700BF3500002052
:1009B800340000203800002080B483B000AF334BEF
:1009C8001B889BB203F02003002B1DD02F4B9B8864
:1009D8009BB2FB71FB790D2B02D0FB790A2B03D15B
:1009E8002B4B01221A700FE02A4B1B78DBB2622BCB
:1009F8000AD8284B1B78DBB25A1CD1B2254A117091
:100A08001946254AFB795354204B1B889BB203F0A7
:100A18000103002B07D01D4A1C4B1B889BB223F0F7
:100A280001039BB21380194B1B889BB203F002038E
:100A3800002B07D0154A154B1B889BB223F00203E5
:100A48009BB21380114B1B889BB203F00403002B4D
:100A580007D00E4A0D4B1B889BB223F004039BB2B0
:100A680013800A4B1B889BB203F00803002B07D0A6
:100A7800064A064B1B889BB223F008039BB21380DF
:100A880000BF0C37BD465DF8047B7047001001407D
:100A9800350000203400002038000020DFF834D072
:100AA800002103E00C4B5B58435004310B480C4BBE
:100AB80042189A42F6D30B4A02E0002342F8043B5C
:100AC800094B9A42F9D300F065F800F091F9FFF765
:100AD80077FB704700800120880E00080000002086
:100AE80014000020140000209C000020FEE780B4C1
:100AF80000AF00BFBD465DF8047B704780B400AF0F
:100B0800FEE780B400AFFEE780B400AFFEE780B434
:100B180000AFFEE780B400AF00BFBD465DF8047BC0
:100B2800704780B400AF00BFBD465DF8047B7047D6
:100B380080B400AF00BFBD465DF8047B704780B548
:100B480000AFFFF7BFFB00BF80BD000080B500AF5E
:100B5800012206210248FFF727FD00BF80BD00BF24
:100B68000000024080B500AF002206210248FFF7CE
:100B78001BFD00BF80BD00BF0000024080B500AF74
:100B8800012206210248FFF70FFD00BF80BD00BF0C
:100B98000000024080B500AF164A164BD3F88830E3
:100BA80043F47003C2F88830134A134B1B6843F0B0
:100BB80001031360104B00229A600F4A0E4B1B680A
:100BC80023F0847323F4803313600B4B0B4A5A6071
:100BD800094A094B1B6823F480231360064B002243
:100BE800DA6000F089F8034B4FF000629A6000BFAA
:100BF80080BD00BF00ED00E0003802401030002446
:100C080080B487B000AF00233B6100237B610223DF
:100C1800FB600023BB6002237B60324B9B6803F0C0
:100C28000C033B613B69042B07D0082B09D0002B30
:100C38003DD12D4B2D4A1A603DE02B4B2C4A1A60B2
:100C480039E0284B5B689B0D03F00103BB60254B23
:100C58005B6803F03F037B60BB68002B0CD0244A21
:100C68007B68B2FBF3F31F4A52689209C2F3080289
:100C780002FB03F37B610BE01C4A7B68B2FBF3F3D6
:100C8800184A52689209C2F3080202FB03F37B6117
:100C9800144B5B681B0C03F0030301335B00FB6020
:100CA8007A69FB68B2FBF3F30F4A136003E00E4B5B
:100CB8000E4A1A6000BF0B4B9B681B0903F00F0319
:100CC8000C4AD35CDBB23B61074B1A683B6922FADA
:100CD80003F3054A136000BF1C37BD465DF8047B6B
:100CE800704700BF00380240000000200024F400D4
:100CF80040787D010400002080B483B000AF002359
:100D08007B6000233B60364A354B1B6843F48033D5
:100D18001360334B1B6803F400333B607B6801337B
:100D28007B603B68002B03D17B68B3F5A06FF0D1E3
:100D38002B4B1B6803F40033002B02D001233B60CC
:100D480001E000233B603B68012B42D1244A244B3D
:100D58001B6C43F080531364224A224B1B6843F4F4
:100D6800404313601E4A1E4B9B6893601C4A1C4BF1
:100D78009B6843F400439360194A194B9B6843F4FA
:100D8800A0539360164B184A5A60154A144B1B68B7
:100D980043F08073136000BF114B1B6803F00073AE
:100DA800002BF9D0114B40F205721A600C4A0C4B1B
:100DB8009B6823F003039360094A094B9B6843F03F
:100DC8000203936000BF064B9B6803F00C03082BDB
:100DD800F9D100BF0C37BD465DF8047B704700BFF2
:100DE800003802400070004019544007003C02409F
:100DF80070B50D4E0D4CA41BA4100025A54209D1B9
:100E08000B4E0C4C00F018F8A41BA4100025A542AA
:100E180005D170BD56F8253098470135EEE756F8EC
:100E2800253098470135F2E7800E0008800E00084B
:100E3800800E0008840E0008F8B500BFF8BC08BC96
:100E48009E467047F8B500BFF8BC08BC9E46704780
:100E58000D0A000052656365697665643A200000F2
:100E68005468697320697320612055534152543185
:080E78002044726976657200E6
:040E8000AD010008B8
:040E840089010008D8
:100E8800007A030A000000000000000001020304C9
:040E98000607080938
:0400000508000AA540
:00000001FF
