:020000040800F2
:1000000000800120B90E00080B0F0008190F00082E
:100010001F0F0008250F00082B0F0008000000002C
:10002000000000000000000000000000310F000888
:100030003F0F0008000000004D0F00085B0F000894
:10004000090F0008090F0008090F0008090F000830
:10005000090F0008090F0008090F00085D030008D8
:10006000690F0008810F0008090F0008090F000838
:10007000090F0008090F0008090F0008090F000800
:10008000090F0008090F0008090F0008090F0008F0
:10009000090F0008090F0008090F0008090F0008E0
:1000A000090F0008090F0008090F0008090F0008D0
:1000B000090F0008090F0008090F0008090F0008C0
:1000C000090F0008090F0008090F0008090F0008B0
:1000D000090F0008090F0008090F0008090F0008A0
:1000E000090F0008090F0008090F0008090F000890
:1000F000090F0008090F0008090F0008090F000880
:10010000090F0008090F0008090F0008090F00086F
:10011000090F0008090F0008090F0008090F00085F
:10012000090F0008090F0008090F0008090F00084F
:10013000090F0008090F0008090F0008090F00083F
:10014000090F0008090F0008090F0008090F00082F
:10015000090F0008090F0008090F0008090F00081F
:10016000090F0008090F0008090F0008090F00080F
:10017000090F0008090F0008090F0008090F0008FF
:08018000090F0008090F000837
:1001880010B5054C237833B9044B13B10448AFF3C9
:1001980000800123237010BD14000020000000001F
:1001A8003C12000808B5034B1BB103490348AFF3E1
:1001B800008008BD00000000180000203C12000864
:1001C80080B483B000AF0346FB71094997F9073043
:1001D8005B09FA7902F01F02012000FA02F241F8E5
:1001E800232000BF0C37BD465DF8047B704700BF75
:1001F80000E100E080B483B000AF0346FB71094919
:1002080097F907305B09FA7902F01F02012000FA1A
:1002180002F2403341F8232000BF0C37BD465DF899
:10022800047B704700E100E080B483B000AF034670
:100238003960FB7197F90730002B0BDA0D49FB7910
:1002480003F00F03043B3A68D2B21201D2B20B4456
:100258001A7609E0084997F907303A68D2B21201CC
:10026800D2B20B4483F8002300BF0C37BD465DF8BB
:10027800047B704700ED00E000E100E080B594B039
:1002880002AF00F0F1F8314B3B6306237B63012397
:10029800BB6303233B646A4607F1400393E803000A
:1002A80082E8030007F130030FCB00F0C5FA284BB2
:1002B800BB610123FB6100233B6201237B626A4629
:1002C80007F1280393E8030082E8030007F1180305
:1002D8000FCB00F0B1FA1D4B3B6005237B60012377
:1002E800BB6003233B616A4607F1100393E80300F0
:1002F80082E803003B460FCB00F09EFABB69F96920
:100308000022184600F0F0FAFB690122072118467E
:1003180000F094FD02210820FFF786FF0321092041
:10032800FFF782FF0820FFF74BFF0920FFF748FF80
:100338000820FFF75FFF642000F07EF80920FFF730
:1003480059FF642000F078F8F2E700BF000002408F
:100358000008024080B500AF084B5B6903F0020358
:10036800002B08D0064A064B5B6983F020035361D3
:10037800012000F087FD00BF80BD00BF003C0140A8
:100388000000024080B483B000AF03463960FB71BF
:1003980097F90730002B0BDA0D49FB7903F00F03AF
:1003A800043B3A68D2B21201D2B20B441A7609E081
:1003B800084997F907303A68D2B21201D2B20B4411
:1003C80083F8002300BF0C37BD465DF8047B7047F7
:1003D80000ED00E000E100E080B582B000AF786099
:1003E8007B68B3F1807F01D3012311E00A4A7B685F
:1003F80023F07F43013B53600F214FF0FF30FFF79D
:10040800C1FF054B00229A60034B07221A600023A4
:1004180018460837BD4680BD10E000E080B400AF44
:10042800044B1B680133034A136000BFBD465DF8E7
:10043800047B70473000002080B485B000AF78603E
:10044800084B1B68FB6000BF064B1A68FB68D21A92
:100458007B689A42F8D300BF1437BD465DF8047B29
:10046800704700BF3000002080B500AF00F0C6FD27
:10047800054B1B68054AA2FB03239B091846FFF797
:10048800ABFF00BF80BD00BF00000020D34D62104D
:1004980080B483B000AF0346FB71094997F9073070
:1004A8005B09FA7902F01F02012000FA02F241F812
:1004B800232000BF0C37BD465DF8047B704700BFA2
:1004C80000E100E080B483B000AF03463960FB71FF
:1004D80097F90730002B0BDA0D49FB7903F00F036E
:1004E800043B3A68D2B21201D2B20B441A7609E040
:1004F800084997F907303A68D2B21201D2B20B44D0
:1005080083F8002300BF0C37BD465DF8047B7047B5
:1005180000ED00E000E100E080B485B000AFF860D5
:10052800B9607A603B607B68042B00F2C88001A246
:1005380052F823F051050008E90500082B060008C9
:100548006B06000899060008FB681B68BA68520029
:10055800012101FA02F2D2431A40FB681A60FB68D3
:100568001B68BA6852000132012101FA02F2D24333
:100578001A40FB681A603B68012B16D1FB68DB68E0
:10058800BA685200012101FA02F21A43FB68DA60E4
:10059800FB68DB68BA6852000132012101FA02F2F5
:1005A800D2431A40FB68DA6088E03B68022B40F0CF
:1005B8008580FB68DB68BA685200012101FA02F203
:1005C800D2431A40FB68DA60FB68DB68BA685200FD
:1005D8000132012101FA02F21A43FB68DA606DE088
:1005E800FB681B68BA685200012101FA02F21A433B
:1005F800FB681A60FB681B68BA6852000132012167
:1006080001FA02F2D2431A40FB681A60FB685B6881
:100618000121BA6801FA02F2D2431A40FB685A6013
:100628004DE0FB681B68BA685200012101FA02F22A
:100638001A43FB681A60FB681B68BA6852000132EB
:10064800012101FA02F2D2431A40FB681A60FB68E2
:100658005B680121BA6801FA02F21A43FB685A6022
:100668002DE0FB681B68BA685200012101FA02F20A
:10067800D2431A40FB681A60FB681B68BA685200CC
:100688000132012101FA02F21A43FB681A6016E0EE
:10069800FB681B68BA685200012101FA02F21A438A
:1006A800FB681A60FB681B68BA68520001320121B6
:1006B80001FA02F21A43FB681A6000E000BF00BFAB
:1006C8001437BD465DF8047B704700BF80B485B021
:1006D80000AFF860B9607A607B68032B66D801A226
:1006E80052F823F0FD0600082D0700085B070008F4
:1006F80089070008FB689B68BA685200012101FA63
:1007080002F2D2431A40FB689A60FB689B68BA6899
:1007180052000132012101FA02F2D2431A40FB6869
:100728009A6043E0FB689B68BA685200012101FAAD
:1007380002F2D2431A40FB689A60FB689B68BA6869
:1007480052000132012101FA02F21A43FB689A6051
:100758002CE0FB689B68BA685200012101FA02F29A
:100768001A43FB689A60FB689B68BA6852000132BA
:10077800012101FA02F2D2431A40FB689A6015E09F
:10078800FB689B68BA685200012101FA02F21A4319
:10079800FB689A60FB689B68BA68520001320121C5
:1007A80001FA02F21A43FB689A6000BF00BF1437CF
:1007B800BD465DF8047B704780B485B000AFF86033
:1007C800B9601346FB71FB79012B0ED1FB681B8BBB
:1007D8009BB21AB20121BB6801FA03F31BB213439F
:1007E8001BB29AB2FB681A8320E0FB79002B1DD15B
:1007F800FB681B8B9BB21AB20121BB6801FA03F399
:100808001BB2DB431BB213401BB29AB2FB681A83BC
:10081800FB685B8B9BB21AB20121BB6801FA03F338
:100828001BB213431BB29AB2FB685A8300BF14373A
:10083800BD465DF8047B704784B080B500AF07F112
:10084800080E8EE80F00BB68214A934205D1214A61
:10085800204B1B6B43F001031363BB681E4A934292
:1008680005D11C4A1B4B1B6B43F002031363BB6887
:100878001A4A934205D1174A164B1B6B43F00403DF
:100888001363BB68164A934205D1124A114B1B6B7E
:1008980043F008031363BB68124A934205D10D4A1B
:1008A8000C4B1B6B43F010031363B868F9683A6983
:1008B8007B69FFF731FEBB68F968BA691846FFF72C
:1008C80005FF00BFBD46BDE8804004B0704700BFCB
:1008D80000000240003802400004024000080240C4
:1008E800000C02400010024080B485B000AFF860F0
:1008F800B9601346FB71A94AA84B5B6C43F480436B
:100908005364FB68A64A93426DD1A44AA34B1B6B60
:1009180043F001031363BB680F2B00F24F8201A25F
:1009280052F823F06D090008750900087D090008D0
:10093800850900088D090008950900089D09000827
:10094800A5090008AD090008B5090008BD09000897
:10095800C5090008CD090008D5090008DD09000807
:10096800E50900088F4B00229A6027E28D4B002290
:100978009A6023E28B4B00229A601FE2894B002287
:100988009A601BE2874B0022DA6017E2854B00224F
:10099800DA6013E2834B0022DA600FE2814B002217
:1009A800DA600BE27F4B00221A6107E27D4B0022DE
:1009B8001A6103E27B4B00221A61FFE1794B0022A6
:1009C8001A61FBE1774B00225A61F7E1754B00226F
:1009D8005A61F3E1734B00225A61EFE1714B002237
:1009E8005A6100BFEAE1FB686F4A93426FD1BB6866
:1009F8000F2B00F2E38101A252F823F0450A000808
:100A08004D0A0008550A00085F0A0008690A00082C
:100A1800710A0008790A0008830A00088D0A00088C
:100A2800950A00089D0A0008A70A0008B10A0008EC
:100A3800B90A0008C10A0008CB0A0008594B01226C
:100A48009A60BBE1574B10229A60B7E1554B4FF4BF
:100A580080729A60B2E1534B4FF480529A60ADE1D4
:100A6800504B0122DA60A9E14E4B1022DA60A5E171
:100A78004C4B4FF48072DA60A0E14A4B4FF480523D
:100A8800DA609BE1474B01221A6197E1454B10223E
:100A98001A6193E1434B4FF480721A618EE1414B26
:100AA8004FF480521A6189E13E4B01225A6185E177
:100AB8003C4B10225A6181E13A4B4FF480725A61E3
:100AC8007CE1384B4FF480525A6100BF76E1FB68F5
:100AD800364A93427FD1314A304B1B6B43F00403B3
:100AE8001363BB680F2B00F2698101A252F823F04F
:100AF800390B0008410B0008490B0008530B00088C
:100B08005D0B0008650B00086D0B0008770B0008EB
:100B1800810B0008890B0008910B00089B0B00084B
:100B2800B90B0008C10B0008C90B0008D30B00085B
:100B38001C4B02229A6041E11A4B20229A603DE147
:100B4800184B4FF400729A6038E1164B4FF400527C
:100B58009A6033E1134B0222DA602FE1114B202215
:100B6800DA602BE10F4B4FF40072DA6026E10D4B8F
:100B78004FF40052DA6021E10A4B02221A611DE1AA
:100B8800084B20221A6119E1064B4FF400721A61D2
:100B980014E1044B4FF400521A610FE1003802408F
:100BA80000000240003801400004024000080240F2
:100BB8009D4B02225A6101E19B4B20225A61FDE0C4
:100BC800994B4FF400725A61F8E0974B4FF400527A
:100BD8005A6100BFF2E0FB68944A934275D1944A87
:100BE800934B1B6B43F008031363BB680F2B00F296
:100BF800E58001A252F823F0410C0008490C0008D6
:100C0800510C00085B0C0008650C00086D0C00080E
:100C1800750C00087F0C0008890C0008910C00086E
:100C2800990C0008A30C0008AD0C0008B50C0008CE
:100C3800BD0C0008C70C00087B4B03229A60BDE07E
:100C4800794B30229A60B9E0774B4FF440729A6042
:100C5800B4E0754B4FF440529A60AFE0724B0322F8
:100C6800DA60ABE0704B3022DA60A7E06E4B4FF4ED
:100C78004072DA60A2E06C4B4FF44052DA609DE0BB
:100C8800694B03221A6199E0674B30221A6195E09B
:100C9800654B4FF440721A6190E0634B4FF4405239
:100CA8001A618BE0604B03225A6187E05E4B302269
:100CB8005A6183E05C4B4FF440725A617EE05A4BB4
:100CC8004FF440525A6100BF78E0FB68594A93429A
:100CD80074D1574A564B1B6B43F010031363BB6820
:100CE8000F2B6BD801A252F823F000BF350D000876
:100CF8003D0D0008450D00084F0D0008590D00086E
:100D0800610D0008690D0008730D00087D0D0008CD
:100D1800850D00088D0D0008970D0008A10D00082D
:100D2800A90D0008B10D0008BB0D00083E4B0422B8
:100D38009A6043E03C4B40229A603FE03A4B4FF4C4
:100D480080629A603AE0384B4FF480429A6035E00E
:100D5800354B0422DA6031E0334B4022DA602DE073
:100D6800314B4FF48062DA6028E02F4B4FF4804219
:100D7800DA6023E02C4B04221A611FE02A4B402240
:100D88001A611BE0284B4FF480621A6116E0264B6B
:100D98004FF480421A6111E0234B04225A610DE09E
:100DA800214B40225A6109E01F4B4FF480625A617F
:100DB80004E01D4B4FF480425A6100BFFB79002BC1
:100DC80009D11D491C4B9B680120BA6800FA02F240
:100DD80013438B6021E0FB79012B09D11649164B8F
:100DE800DB680120BA6800FA02F21343CB6014E012
:100DF800FB79022B11D110490F4B9B680120BA686F
:100E080000FA02F213438B600B490B4BDB6801209D
:100E1800BA6800FA02F21343CB6000BF1437BD462C
:100E28005DF8047B704700BF00380140000C0240A9
:100E38000038024000100240003C014080B582B0FA
:100E480000AF78600B46FB701346BB70BA7897F911
:100E5800033011461846FFF735FB0949084B1B6854
:100E680001207A6800FA02F213430B6097F9033005
:100E78001846FFF70DFB00BF0837BD4680BD00BF11
:100E8800003C014080B483B000AF78600749074B4D
:100E98005B6901207A6800FA02F213434B6100BFD4
:100EA8000C37BD465DF8047B704700BF003C01402D
:100EB800DFF834D0002103E00C4B5B584350043179
:100EC8000B480C4B42189A42F6D30B4A02E0002317
:100ED80042F8043B094B9A42F9D300F059F800F064
:100EE80085F9FFF7CBF97047008001205C120008F4
:100EF800000000201400002014000020340000200E
:100F0800FEE780B400AF00BFBD465DF8047B7047C4
:100F180080B400AFFEE780B400AFFEE780B400AF56
:100F2800FEE780B400AFFEE780B400AF00BFBD4667
:100F38005DF8047B704780B400AF00BFBD465DF824
:100F4800047B704780B400AF00BFBD465DF8047BEA
:100F5800704780B500AFFFF761FA00BF80BD0000A1
:100F680080B500AF012206210248FFF725FC00BF2B
:100F780080BD00BF0000024080B500AF00220621FE
:100F88000248FFF719FC00BF80BD00BF0000024007
:100F980080B500AF164A164BD3F8883043F4700377
:100FA800C2F88830134A134B1B6843F001031360DF
:100FB800104B00229A600F4A0E4B1B6823F0847373
:100FC80023F4803313600B4B0B4A5A60094A094BD0
:100FD8001B6823F480231360064B0022DA6000F0BC
:100FE80089F8034B4FF000629A6000BF80BD00BFD4
:100FF80000ED00E0003802401030002480B487B0D3
:1010080000AF00233B6100237B610223FB600023C8
:10101800BB6002237B60324B9B6803F00C033B618F
:101028003B69042B07D0082B09D0002B3DD12D4B51
:101038002D4A1A603DE02B4B2C4A1A6039E0284BA8
:101048005B689B0D03F00103BB60254B5B6803F0F5
:101058003F037B60BB68002B0CD0244A7B68B2FB43
:10106800F3F31F4A52689209C2F3080202FB03F322
:101078007B610BE01C4A7B68B2FBF3F3184A5268A9
:101088009209C2F3080202FB03F37B61144B5B680D
:101098001B0C03F0030301335B00FB607A69FB68F8
:1010A800B2FBF3F30F4A136003E00E4B0E4A1A60CB
:1010B80000BF0B4B9B681B0903F00F030C4AD35C62
:1010C800DBB23B61074B1A683B6922FA03F3054A16
:1010D800136000BF1C37BD465DF8047B704700BF36
:1010E80000380240000000200024F40040787D0110
:1010F8000400002080B483B000AF00237B6000238D
:101108003B60364A354B1B6843F480331360334BDE
:101118001B6803F400333B607B6801337B603B68EA
:10112800002B03D17B68B3F5A06FF0D12B4B1B6864
:1011380003F40033002B02D001233B6001E00023BD
:101148003B603B68012B42D1244A244B1B6C43F083
:1011580080531364224A224B1B6843F440431360B4
:101168001E4A1E4B9B6893601C4A1C4B9B6843F4A9
:1011780000439360194A194B9B6843F4A05393604A
:10118800164B184A5A60154A144B1B6843F0807373
:10119800136000BF114B1B6803F00073002BF9D0DC
:1011A800114B40F205721A600C4A0C4B9B6823F0F5
:1011B80003039360094A094B9B6843F00203936059
:1011C80000BF064B9B6803F00C03082BF9D100BF46
:1011D8000C37BD465DF8047B704700BF00380240FD
:1011E8000070004019544007003C024070B50D4E95
:1011F8000D4CA41BA4100025A54209D10B4E0C4C84
:1012080000F018F8A41BA4100025A54205D170BD54
:1012180056F8253098470135EEE756F825309847B7
:101228000135F2E75412000854120008541200085D
:1012380058120008F8B500BFF8BC08BC9E467047B5
:0C124800F8B500BFF8BC08BC9E4670471B
:04125400AD010008E0
:041258008901000800
:10125C00007A030A000000000000000001020304F1
:04126C000607080960
:0400000508000EB928
:00000001FF
